:1000000034050020291E0000951E00009D1E0000E2
:10001000A51E0000A51E0000A51E00000000000097
:10002000000000000000000000000000A51E00000D
:10003000A51E000000000000A51E0000A51E000077
:10004000A51E0000A51E0000A51E0000A51E0000A4
:10005000A51E0000A51E0000A51E0000A51E000094
:10006000A51E0000A51E0000A51E0000A51E000084
:10007000A51E0000A51E0000A51E0000A51E000074
:10008000A51E0000A51E0000A51E0000A51E000064
:10009000A51E0000A51E0000A51E0000A51E000054
:1000A000A51E0000A51E0000A51E0000A51E000044
:1000B000A51E0000A51E0000A51E0000A51E000034
:1000C000A51E0000A51E0000A51E0000A51E000024
:1000D000A51E0000A51E0000A51E0000A51E000014
:1000E000A51E00000000000000000000A51E00008A
:1000F000A51E0000A51E0000A51E0000A51E0000F4
:10010000A51E0000A51E0000A51E0000A51E0000E3
:100110000000000000000000A51E0000A51E000059
:10012000A51E0000A51E0000A51E0000A51E0000C3
:10013000A51E0000A51E0000A51E0000A51E0000B3
:1001400000000000000000000000000000000000AF
:10015000A51E0000A51E0000A51E0000A51E000093
:10016000000000000000000000000000000000008F
:10017000000000000000000000000000000000007F
:10018000000000000000000000000000000000006F
:10019000000000000000000000000000000000005F
:1001A000000000000000000000000000000000004F
:1001B000A51E0000A51E0000A51E0000A51E000033
:1001C000A51E0000A51E0000A51E0000A51E000023
:1001D000A51E0000A51E0000A51E0000A51E000013
:1001E000A51E0000A51E0000A51E000000000000C6
:1001F00000000000A51E0000A51E0000A51E0000B6
:10020000A51E0000A51E0000000000000000000068
:10021000A51E0000A51E0000A51E0000A51E0000D2
:10022000A51E0000A51E0000A51E0000A51E0000C2
:10023000A51E0000A51E0000A51E0000A51E0000B2
:10024000A51E0000A51E0000A51E0000A51E0000A2
:10025000A51E0000A51E0000A51E0000A51E000092
:10026000A51E0000A51E0000A51E000090B5ADF55E
:10027000797D00AF07F12803184640F271231A4632
:10028000002101F01BFE07F1280343F232021A603D
:10029000043300221A605A609A60DA601A611A7593
:1002A00007F12803E04903F11902088889781080D2
:1002B00091701C3300221A605A609A60DA601A61E9
:1002C0009A8207F12803D94903F132020888897814
:1002D00010809170353300221A605A609A60DA609B
:1002E0001A619A8207F12803D14903F14B02088869
:1002F0008978108091704E3300221A605A609A609B
:10030000DA601A619A8207F1280335225A66683347
:1003100000221A605A609A60DA601A611A7507F151
:100320002803C44903F17D02098811807F3300222C
:100330001A605A609A60DA601A61C3F8132007F1F4
:100340002804BD4B04F1960203CB106051601B885A
:10035000138104F1A00300221A605A609A60C3F866
:100360000B2007F12803B24903F1AF02088889780E
:1003700010809170B23300221A605A609A60DA607D
:100380001A619A8207F12802AC4902F1C80303C935
:1003900018600433198002F1CE0300221A605A60FB
:1003A0009A60DA60C3F80F2007F12803A44903F12B
:1003B000E10209881180E33300221A605A609A60D2
:1003C000DA601A61C3F8132007F128019D4A01F190
:1003D000FA03106818609088927998809A7101F2F7
:1003E000011300221A605A609A60DA601A8207F1DB
:1003F0002803954903F213120888897810809170B8
:1004000003F58B7300221A605A609A60DA601A61F1
:100410009A8207F128028D4902F5967303C9186084
:100420000433198002F5997300221A605A609A60A9
:10043000DA60C3F80F2007F12803854903F245125B
:100440000988118003F2471300221A605A609A60EB
:10045000DA601A61C3F8132007F128047D4B04F514
:10046000AF7203CB106051601B78137204F26713F4
:1004700000221A605A609A60DA6007F12803764910
:1004800003F277120868106003F27B1300221A60EF
:100490005A609A60DA601A611A7507F128026F498A
:1004A00002F5C87303C918600433197002F295137A
:1004B00000221A605A609A60DA601A6107F1280314
:1004C000674903F2A9120988118003F2AB130022D5
:1004D0001A605A609A60DA601A61C3F8132007F153
:1004E0002804604B04F5E17203CB106051601B7867
:1004F000137204F2CB1300221A605A609A60DA6019
:1005000007F12803484903F2DB1208888978108034
:10051000917003F5EF7300221A605A609A60DA60F6
:100520001A619A8207F128024F4902F5FA7303C94A
:1005300018600433198002F5FD7300221A605A60B6
:100540009A60DA60C3F80F2007F12803184601F01B
:10055000ADFC0346C7F8283307F1280319331846C2
:1005600001F0A4FC0346C7F82C3307F1280332330B
:10057000184601F09BFC0346C7F8303307F1280307
:100580004B33184601F092FC0346C7F8343307F1A9
:1005900028036433184601F089FC0346C7F8383352
:1005A000324BC7F8C0330023C7F8BC330023C7F869
:1005B000DC330623C7F8D83307F12801D7F8D8234E
:1005C00013469B0013449A0013440B441A491846DF
:1005D00001F0FAFC0346002B76D1D7F8D8335A1C29
:1005E00007F1280113469B0013449A0013440B445F
:1005F000184601F05BFCC7F8B803D7F8B833C7F862
:100600001433D7F8D8339A1C07F1280113469B00FE
:1006100013449A0013440B44D7F8C013184601F052
:100620009BFEC7F8D4034BE0C0260000DC26000088
:10063000F8260000142700001825000030270000CD
:100640004C270000342500006827000084270000A4
:10065000A027000050250000BC270000D82700007C
:10066000F42700006C25000010280000142500006D
:10067000D7F8DC33002B15D1D7F8D40301F016FCE2
:1006800007EE900AF8EEE77AC7EDED7AD7EDED7A4E
:10069000FDEEE77A17EE903AC7F800330123C7F86A
:1006A000DC3306E007F52773D7F8D413184601F0BA
:1006B000F5FDD7F8C013002001F04EFEC7F8D403B3
:1006C000D7F8D433002BD3D107F12801D7F8D8239A
:1006D00013469B0013449A0013440B44E749184601
:1006E00001F072FC0346002B53D1D7F8D8335A1CC3
:1006F00007F1280113469B0013449A0013440B444E
:10070000184601F0D3FBC7F8B003D7F8B033C7F8E9
:100710001833D7F8D8339A1C07F1280113469B00E9
:1007200013449A0013440B44D7F8C013184601F041
:1007300013FEC7F8D00328E0D7F8DC33002B15D11F
:10074000D7F8D00301F0B2FB07EE900AF8EEE77A93
:10075000C7EDEB7AD7EDEB7AFDEEE77A17EE903A3C
:10076000C7F804330123C7F8DC3307E007F5277324
:100770000A33D7F8D013184601F090FDD7F8C0130C
:10078000002001F0E9FDC7F8D003D7F8D033002BE3
:10079000D2D107F12801D7F8D82313469B00134480
:1007A0009A0013440B44B649184601F00DFC034669
:1007B000002B53D1D7F8D8335A1C07F12801134620
:1007C0009B0013449A0013440B44184601F06EFB3F
:1007D000C7F8A803D7F8A833C7F81C33D7F8D8331D
:1007E0009A1C07F1280113469B0013449A001344F6
:1007F0000B44D7F8C013184601F0AEFDC7F8CC0380
:1008000028E0D7F8DC33002B15D1D7F8CC0301F062
:100810004DFB07EE900AF8EEE77AC7EDE97AD7EDDF
:10082000E97AFDEEE77A17EE903AC7F8083301232C
:10083000C7F8DC3307E007F527731433D7F8CC1378
:10084000184601F02BFDD7F8C013002001F084FDFD
:10085000C7F8CC03D7F8CC33002BD2D107F128014D
:10086000D7F8D82313469B0013449A0013440B4433
:100870008449184601F0A8FB0346002B54D1D7F851
:10088000D8335A1C07F1280113469B0013449A00E1
:1008900013440B44184601F009FBC7F8A003D7F82E
:1008A000A033C7F82033D7F8D8339A1C07F12801B2
:1008B00013469B0013449A0013440B44D7F8C0130B
:1008C000184601F049FDC7F8C80328E0D7F8DC3323
:1008D000002B15D1D7F8C80301F0E8FA07EE900A0B
:1008E000F8EEE77AC7EDE77AD7EDE77AFDEEE77A3B
:1008F00017EE903AC7F80C330123C7F8DC3307E052
:1009000007F527731E33D7F8C813184601F0C6FC45
:10091000D7F8C013002001F01FFDC7F8C803D7F8AF
:10092000C833002BD2D108E00023C7F8DC33D7F856
:10093000D8330133C7F8D8333EE60023C7F8D8339D
:1009400012E0D7F8D8339B0007F57872134453F8B8
:10095000CC1C07F11803D7F8D82343F82210D7F896
:10096000D8330133C7F8D833D7F8D833032BE8DDB1
:100970000023C7F8D83311E0D7F8D8339B0007F528
:100980007872134453F8B81C3B1DD7F8D82343F8AA
:100990002210D7F8D8330133C7F8D833D7F8D83373
:1009A000042BE9DD00F046FF00F066FF00F086FF53
:1009B00001F012F8012001F063F8802001F060F8E6
:1009C0004FF4FA7001F09AF8012001F097F8012134
:1009D000012000F0CBFF2C4800F0B0FF01210220E5
:1009E00000F0C4FF294800F0A9FF4FF4487001F05F
:1009F00085F800F087FF0023C7F8C4330023C7F849
:100A00009833234B1B6803F00103C7F89433204B42
:100A10001B6803F00203C7F890331D4B1B6803F0FB
:100A20000403C7F88C331A4B1B6803F00803C7F89C
:100A30008833174B1B6803F01003C7F88433144B3B
:100A40001B6803F02003C7F88033114B1B6803F0C9
:100A50001003C7F87C33D7F89433002B1AD0D7F89B
:100A6000C4330533C7F8C433D7F8C40301F084F89E
:100A7000D7F828330133C7F82833C2E734250000FC
:100A8000502500006C2500008825000094250000FA
:100A9000FC430240D7F89033002B0ED0D7F8C43374
:100AA0000A33C7F8C433D7F8C40301F065F8D7F8A0
:100AB0002C330133C7F82C33A3E7D7F88C33002B42
:100AC0000ED0D7F8C4331433C7F8C433D7F8C403EF
:100AD00001F052F8D7F830330133C7F8303390E7DC
:100AE000D7F88833002B0ED0D7F8C4333233C7F889
:100AF000C433D7F8C40301F03FF8D7F834330133D7
:100B0000C7F834337DE7D7F88433002B0ED0D7F8FD
:100B1000C4336433C7F8C433D7F8C40301F02CF8E6
:100B2000D7F838330133C7F838336AE7D7F880335A
:100B3000002B05D1D7F87C33002B3FF462AF43E79D
:100B400000BF0021022000F011FF994800F0F6FEDE
:100B50004FF47A7000F0D2FF00F0D4FED7F8C4331F
:100B6000C7F89833934B1B6803F00103C7F894331D
:100B7000904B1B6803F00203C7F890338D4B1B6842
:100B800003F00403C7F88C338A4B1B6803F0080397
:100B9000C7F88833874B1B6803F01003C7F884330A
:100BA000844B1B6803F02003C7F88033D7F89433D5
:100BB000002B32D0D7F8C4330E2B20DDD7F81433F6
:100BC000002B0ED0D7F8C4330F3BC7F8C433D7F887
:100BD000C40300F0D1FFD7F81433013BC7F8143336
:100BE000C0E70021022000F0C1FE734800F0A6FE1D
:100BF0004FF47A7000F082FF00F084FEB2E700212B
:100C0000022000F0B3FE6D4800F098FE4FF47A70B9
:100C100000F074FF00F076FEA4E7D7F89033002BC5
:100C200032D0D7F8C433092B20DDD7F81833002B86
:100C30000ED0D7F8C4330A3BC7F8C433D7F8C4037F
:100C400000F09AFFD7F81833013BC7F8183389E74B
:100C50000021022000F08AFE574800F06FFE4FF49A
:100C60007A7000F04BFF00F04DFE7BE70021022080
:100C700000F07CFE514800F061FE4FF47A7000F005
:100C80003DFF00F03FFE6DE7D7F88C33002B32D0EC
:100C9000D7F8C433042B20DDD7F81C33002B0ED03B
:100CA000D7F8C433053BC7F8C433D7F8C40300F002
:100CB00063FFD7F81C33013BC7F81C3352E7002110
:100CC000022000F053FE3C4800F038FE4FF47A70EA
:100CD00000F014FF00F016FE44E70021022000F0AF
:100CE00045FE364800F02AFE4FF47A7000F006FF09
:100CF00000F008FE36E7D7F88833002B32D0D7F85B
:100D0000C433312B20DDD7F82033002B0ED0D7F899
:100D1000C433323BC7F8C433D7F8C40300F02CFF08
:100D2000D7F82033013BC7F820331BE7002102200E
:100D300000F01CFE204800F001FE4FF47A7000F035
:100D4000DDFE00F0DFFD0DE70021022000F00EFEC9
:100D50001A4800F0F3FD4FF47A7000F0CFFE00F077
:100D6000D1FDFFE6D7F88433002B29D1D7F88033A3
:100D7000002B3FF4F7AED7F89833C7F8C433D7F851
:100D8000C40300F0F9FE07F118031B68C7F8143319
:100D900007F118035B68C7F8183307F118039B685D
:100DA000C7F81C3307F11803DB68C7F82033D9E60E
:100DB0009C250000FC430240AC250000BC2500003F
:100DC00000BF00F09FFD4FF4FA7001F0C5F801F08C
:100DD000CDF80246994B1340002B03DA013B63F038
:100DE000030301330133C7F87833D7F8780300F0F1
:100DF0007BFF0421022000F0B9FD914800F09EFD28
:100E00004FF47A7000F07AFE00F07CFDD7F878336A
:100E1000022B40F0CB808B4A8A4B1B6843F00803BF
:100E20001360884A874B1B6823F0040313604FF458
:100E30007A7000F063FE0021022000F097FD8248E6
:100E400000F07CFD00F05EFD4FF47A7000F056FE7D
:100E5000D7F828233B1D1B68D31AC7F87433D7F87B
:100E60002C233B1D5B68D31AC7F87033D7F83023A7
:100E70003B1D9B68D31AC7F86C33D7F834233B1D4E
:100E8000DB68D31AC7F86833D7F838233B1D1B69D2
:100E9000D31AC7F864333B1D1B68C7F828333B1DC2
:100EA0005B68C7F82C333B1D9B68C7F830333B1D8C
:100EB000DB68C7F834333B1D1B69C7F8383307F1CB
:100EC00018031B68C7F8143307F118035B68C7F8E9
:100ED000183307F118039B68C7F81C3307F1180390
:100EE000DB68C7F820330021022000F03FFD57489F
:100EF00000F024FD4FF47A7000F000FE00F002FDD7
:100F0000D7F8640300F0F0FE0521022000F02EFD6A
:100F10004F4800F013FD4FF47A7000F0EFFD00F041
:100F2000F1FCD7F8680300F0DFFE0321022000F097
:100F30001DFD484800F002FD4FF47A7000F0DEFD20
:100F400000F0E0FCD7F86C0300F0CEFE0321022095
:100F500000F00CFD404800F0F1FC4FF47A7000F016
:100F6000CDFD00F0CFFCD7F8700300F0BDFE0321EB
:100F7000022000F0FBFC394800F0E0FC4FF47A70EE
:100F800000F0BCFD00F0BEFCD7F8740300F0ACFE2E
:100F90000321022000F0EAFC314800F0CFFC4FF4BE
:100FA0007A7000F0ABFD00F0ADFCFDE2254A254B68
:100FB0001B6843F004031360224A224B1B6823F092
:100FC000080313600021022000F0D0FC254800F047
:100FD000B5FC4FF47A7000F091FD00F093FCD7F867
:100FE000282313469B009918D7F82C2313469B00FF
:100FF00013445B001944D7F8302313469B00134475
:101000009B00CA18D7F83433322101FB03F31A448A
:10101000D7F83833642101FB03F31A44D7F8C433FB
:101020009A4223DA0121022000F0A0FC0E4800F0D1
:1010300085FC4FF47A7000F061FDB5E2030000809A
:10104000D0250000FC730040E0250000F0250000E2
:10105000FC250000082600001426000020260000C1
:101060002C2600003826000050260000D7F8383320
:10107000002B7DDDD7F8C433EC4A82FB03125211FA
:10108000DB17D31AC7F86033D7F86033002B6FD063
:10109000D7F86033C7F85C33D7F83823D7F85C3318
:1010A0009A422CDA0021022000F060FCE04800F0B7
:1010B00045FC4FF47A7000F021FD00F023FCD7F8D6
:1010C0003833184600F010FE0421022000F04EFCD8
:1010D000D84800F033FC4FF47A7000F00FFD00F0B8
:1010E00011FCD7F838336FF0630202FB03F3D7F833
:1010F000C4231344C7F8C4330023C7F83833D7F8E0
:101100003823D7F85C339A4232DB0021022000F00A
:101110002DFCC74800F012FC4FF47A7000F0EEFC92
:1011200000F0F0FBD7F85C0300F0DEFD04210220A4
:1011300000F01CFCBF4800F001FC4FF47A7000F096
:10114000DDFC00F0DFFBD7F8C433B84A82FB0312A2
:101150005111DA178A1A642101FB02F29B1AC7F8AF
:10116000C433D7F83823D7F85C33D31AC7F83833E9
:10117000D7F83433002B7DDDD7F8C433AB4A82FB7C
:1011800003121211DB17D31AC7F85833D7F85833A4
:10119000002B6FD0D7F85833C7F85433D7F834231F
:1011A000D7F854339A422CDA0021022000F0DEFBFB
:1011B0009F4800F0C3FB4FF47A7000F09FFC00F0F2
:1011C000A1FBD7F83433184600F08EFD042102202D
:1011D00000F0CCFB984800F0B1FB4FF47A7000F0BF
:1011E0008DFC00F08FFBD7F834336FF0310202FB37
:1011F00003F3D7F8C4231344C7F8C4330023C7F854
:101200003433D7F83423D7F854339A4232DB0021F1
:10121000022000F0ABFB864800F090FB4FF47A70A0
:1012200000F06CFC00F06EFBD7F8540300F05CFD9E
:101230000421022000F09AFB7F4800F07FFB4FF46E
:101240007A7000F05BFC00F05DFBD7F8C433774A9E
:1012500082FB03121111DA178A1A322101FB02F202
:101260009B1AC7F8C433D7F83423D7F85433D31AAA
:10127000C7F83433D7F83033002B7EDDD7F8C433CA
:101280006E4A82FB0312D210DB17D31AC7F8503311
:10129000D7F85033002B70D0D7F85033C7F84C3301
:1012A000D7F83023D7F84C339A422CDA00210220A9
:1012B00000F05CFB5E4800F041FB4FF47A7000F0F8
:1012C0001DFC00F01FFBD7F83033184600F00CFD72
:1012D0000421022000F04AFB594800F02FFB4FF494
:1012E0007A7000F00BFC00F00DFBD7F830336FF094
:1012F000130202FB03F3D7F8C4231344C7F8C43323
:101300000023C7F83033D7F83023D7F84C339A424C
:1013100033DB0021022000F029FB454800F00EFBE2
:101320004FF47A7000F0EAFB00F0ECFAD7F84C03C7
:1013300000F0DAFC0421022000F018FB404800F025
:10134000FDFA4FF47A7000F0D9FB00F0DBFAD7F821
:10135000C4233A4B83FB0213D910D317C91A0B4687
:101360009B000B449B00D31AC7F8C433D7F8302333
:10137000D7F84C33D31AC7F83033D7F82C33002BB7
:1013800040F38F80D7F8C4332C4A82FB03129210AB
:10139000DB17D31AC7F84833D7F84833002B00F0CF
:1013A0008080D7F84833C7F84433D7F82C23D7F8D0
:1013B00044339A422CDA0021022000F0D7FA1C486C
:1013C00000F0BCFA4FF47A7000F098FB00F09AFA43
:1013D000D7F82C33184600F087FC0421022000F0D7
:1013E000C5FA184800F0AAFA4FF47A7000F086FBAC
:1013F00000F088FAD7F82C336FF0090202FB03F3F0
:10140000D7F8C4231344C7F8C4330023C7F82C33D8
:10141000D7F82C23D7F844339A4242DB002102202C
:1014200000F0A4FA024800F089FA0DE01F85EB51A4
:1014300064260000FC25000008260000676666663A
:1014400014260000202600004FF47A7000F056FBAE
:1014500000F058FAD7F8440300F046FC04210220BB
:1014600000F084FAE54800F069FA4FF47A7000F071
:1014700045FB00F047FAD7F8C423E14B83FB021386
:101480009910D317C91A0B469B000B445B00D31A63
:10149000C7F8C433D7F82C23D7F84433D31AC7F886
:1014A0002C33D7F82833002B7EDDD7F8C433D44A49
:1014B00082FB03125210DB17D31AC7F84033D7F858
:1014C0004033002B70D0D7F84033C7F83C33D7F8FF
:1014D0002823D7F83C339A422DDA0021022000F06D
:1014E00045FAC84800F02AFA4FF47A7000F006FB7B
:1014F00000F008FAD7F82833184600F0F5FB04216D
:10150000022000F033FAC04800F018FA4FF47A7065
:1015100000F0F4FA00F0F6F9D7F8282313469B07F9
:101520009B1A9B009B1AD7F8C4231344C7F8C433F3
:101530000023C7F82833D7F82823D7F83C339A423A
:1015400032DB0021022000F011FAAE4800F0F6F97B
:101550004FF47A7000F0D2FA00F0D4F9D7F83C03D7
:1015600000F0C2FB0421022000F000FAA64800F0BF
:10157000E5F94FF47A7000F0C1FA00F0C3F9D7F83A
:10158000C4239F4B83FB02135910D317C91A0B4670
:101590009B000B44D31AC7F8C433D7F82823D7F8D5
:1015A0003C33D31AC7F82833984A984B1B6823F06A
:1015B00004031360954A954B1B6823F008031360DE
:1015C0000021022000F0D2F9914800F0B7F94FF461
:1015D0007A7000F093FA00F095F9D7F8283318469E
:1015E00000F082FB0421022000F0C0F9864800F0E0
:1015F000A5F94FF47A7000F081FA00F083F9002128
:10160000022000F0B3F9824800F098F94FF47A70A4
:1016100000F074FA00F076F9D7F82C33184600F091
:1016200063FB0421022000F0A1F9744800F086F960
:101630004FF47A7000F062FA00F064F900210220A1
:1016400000F094F9724800F079F94FF47A7000F0E4
:1016500055FA00F057F9D7F83033184600F044FB3C
:101660000421022000F082F96A4800F067F94FF483
:101670007A7000F043FA00F045F90021022000F0F2
:1016800075F9634800F05AF94FF47A7000F036FAB1
:1016900000F038F9D7F83433184600F025FB042160
:1016A000022000F063F95C4800F048F94FF47A70CA
:1016B00000F024FA00F026F90021022000F056F98B
:1016C000534800F03BF94FF47A7000F017FA00F03D
:1016D00019F9D7F83833184600F006FB0421022028
:1016E00000F044F94D4800F029F94FF47A7000F009
:1016F00005FA00F007F90021022000F037F9484808
:1017000000F01CF94FF47A7000F0F8F900F0FAF8E4
:10171000D7F81433184600F0E7FA0421022000F04D
:1017200025F9404800F00AF94FF47A7000F0E6F924
:1017300000F0E8F80021022000F018F9384800F025
:10174000FDF84FF47A7000F0D9F900F0DBF8D7F823
:101750001833184600F0C8FA0421022000F006F9F8
:10176000314800F0EBF84FF47A7000F0C7F900F060
:10177000C9F80021022000F0F9F8294800F0DEF84D
:101780004FF47A7000F0BAF900F0BCF8D7F81C33C7
:10179000184600F0A9FA0421022000F0E7F82348D7
:1017A00000F0CCF84FF47A7000F0A8F900F0AAF835
:1017B0000021022000F0DAF8194800F0BFF84FF4D9
:1017C0007A7000F09BF900F09DF8D7F820331846A6
:1017D00000F08AFA0421022000F0C8F8144800F052
:1017E000ADF84FF47A7000F089F900F08BF800231F
:1017F000184607F57977BD4690BD00BF202600004A
:1018000067666666642600002C260000FC730040B4
:10181000702600001426000008260000FC250000A9
:10182000782600008426000094260000A0260000F0
:10183000B026000080B483B000AF0C4A0B4B1B688D
:1018400043F010031360094B1B687B60084A084B88
:101850001B681360074A074B1B6843F03F03136084
:1018600000BF0C37BD465DF8047B704708E10F40B0
:10187000004402401C45024080B483B000AF0C4AD3
:101880000B4B1B6843F020031360094B1B687B6004
:10189000084A084B1B681360074A074B1B6843F054
:1018A000FF03136000BF0C37BD465DF8047B704733
:1018B00008E10F40005402401C55024080B483B040
:1018C00000AF0D4A0C4B1B6843F0080313600A4B32
:1018D0001B687B60094A094B1B6843F00F031360C8
:1018E000074A074B1B6843F00F03136000BF0C3718
:1018F000BD465DF8047B704708E10F40007400406E
:101900001C75004080B500AF0121022000F02EF8C8
:10191000024800F013F800BF80BD00BF2C28000073
:1019200080B500AF0121012000F020F8024800F04E
:1019300005F800BF80BD00BF2C28000080B582B034
:1019400000AF786008E07B685A1C7A6093F9003039
:10195000DBB2184600F0B6F87B6893F90030002B34
:10196000F1D100BF0837BD4680BD00BF80B582B051
:1019700000AF03460A46FB711346BB7197F9073067
:10198000012B11D197F906305A1E124B1340002B30
:1019900003DA013B63F00F030133DBB2803BDBB2C0
:1019A000184600F06DF810E097F906305A1E094B02
:1019B0001340002B03DA013B63F00F030133DBB26A
:1019C000403BDBB2184600F05BF800BF0837BD466D
:1019D00080BD00BF0F00008080B500AF0F4A0F4BE5
:1019E0001B6843F0020313600D4A0D4B1B6843F064
:1019F000FF0313600B4A0B4B1B6843F0FF0313609C
:101A0000282000F03DF8062000F03AF8012000F010
:101A100037F80F2000F034F800BF80BD08E10F4018
:101A2000005400401C55004080B582B000AF034612
:101A30000A46FB711346BB71FB7923F00F03FB7160
:101A4000BB7903F00F03BB710C49FA79BB791343DF
:101A5000DBB20B600949FA79BB791343DBB243F07F
:101A60000403DBB20B60002000F068F8034AFB7946
:101A7000136000BF0837BD4680BD00BFFC53004067
:101A800080B582B000AF0346FB71FB7923F00F03F2
:101A9000DBB200211846FFF7C7FFFB791B01DBB261
:101AA00000211846FFF7C0FFFB79032B03D8022063
:101AB00000F024F802E0282000F040F800BF0837CA
:101AC000BD4680BD80B582B000AF0346FB71FB7997
:101AD00023F00F03DBB201211846FFF7A5FFFB79C6
:101AE0001B01DBB201211846FFF79EFF282000F002
:101AF00025F800BF0837BD4680BD00BF80B485B063
:101B000000AF78600023FB600DE00023BB6002E0C3
:101B1000BB680133BB60BB6840F6B7329342F7DD68
:101B2000FB680133FB60FA687B689A42EDDB00BF1B
:101B30001437BD465DF8047B704700BF80B485B0A4
:101B400000AF78600023FB600BE00023BB6002E085
:101B5000BB680133BB60BB68092BF9DDFB6801334F
:101B6000FB60FA687B689A42EFDB00BF1437BD4622
:101B70005DF8047B704700BF80B588B000AF786027
:101B80007B68564A82FB03125211DB17D31ABB61E2
:101B90000023FB6108E007F10C02FB6913440022FB
:101BA0001A70FB690133FB61FB69092BF3DD7B686C
:101BB000092B0CDC7B68DBB23033DBB25BB23B73EE
:101BC00020237B735423BB734C23FB736BE07B6834
:101BD000632B26DC7B68092B23DD7B68404A82FB74
:101BE00003129210DB17D31ADBB23033DBB25BB2D5
:101BF0003B737A683A4B83FB02139910D317C91AC7
:101C00000B469B000B445B00D11ACBB23033DBB2E6
:101C10005BB27B732023BB735423FB734C233B7455
:101C200041E07B682D4A82FB03125211DB17D31A65
:101C3000DBB23033DBB25BB23B737B68274A82FB9B
:101C400003125111DA178A1A642101FB02F29B1A5E
:101C50007B607B68224A82FB03129210DB17D31A47
:101C6000DBB23033DBB25BB27B737A681C4B83FB35
:101C700002139910D317C91A0B469B000B445B0043
:101C8000D31A7B607B68DBB23033DBB25BB2BB73F1
:101C90002023FB7300210220FFF768FE07F10C03ED
:101CA0001846FFF74BFE01210120FFF75FFE0D48AC
:101CB000FFF744FE01210220FFF758FE07F10C0355
:101CC0001846FFF73BFE4FF4FA70FFF717FFFFF7D8
:101CD00027FE00BF2037BD4680BD00BF1F85EB51EA
:101CE000676666664028000080B588B000AF7860FF
:101CF0000023FB6108E007F10802FB69134400229E
:101D00001A70FB690133FB61FB69092BF3DD7B680A
:101D1000434A82FB03129210DB17D31ABB617A6825
:101D20003F4B83FB02139910D317C91A0B469B0034
:101D30000B445B00D31A7B61BB69002B0FD17B691D
:101D4000DBB23033DBB25BB23B7201210220FFF722
:101D50000DFE07F108031846FFF7F0FD5BE0BB69D5
:101D6000002B18D0BB69092B15DCBB69DBB2303303
:101D7000DBB25BB23B727B69DBB23033DBB25BB2AE
:101D80007B7200210220FFF7F1FD07F108031846DE
:101D9000FFF7D4FD3FE07B68224A82FB0312521119
:101DA000DB17D31ADBB23033DBB25BB23B727B683A
:101DB0001C4A82FB03125111DA178A1A642101FBB3
:101DC00002F29B1A7B607B68154A82FB0312921019
:101DD000DB17D31ADBB23033DBB25BB27B727A68CB
:101DE0000F4B83FB02139910D317C91A0B469B00A4
:101DF0000B445B00D31A7B607B68DBB23033DBB211
:101E00005BB2BB7200210220FFF7B0FD07F10803AF
:101E10001846FFF793FD00BF2037BD4680BD00BFC9
:101E2000676666661F85EB5180B582B000AF134BC5
:101E30007B60134B3B6007E03B681A1D3A607A6891
:101E4000111D796012681A603B680E4A9342F3D301
:101E50000E480F494FF000028842B8BF40F8042BEB
:101E6000FADB094A084B1B6843F470031360FEF762
:101E7000FDF900BF0837BD4680BD00BF70290000D6
:101E8000000000203404002088ED00E0340400202D
:101E90003405002080B400AFFEE700BF80B400AF7F
:101EA000FEE700BF80B400AFFEE700BF0A220021BA
:101EB00000F024BB0A23002200F08CBA70B484071F
:101EC00046D0541E002A41D0CDB2034602E0621E25
:101ED000E4B3144603F8015B9A07F8D1032C2ED91A
:101EE000CDB245EA05250F2C45EA054519D903F180
:101EF00010022646103E0F2E42F8105C42F80C5C91
:101F000042F8085C42F8045C02F11002F2D8A4F135
:101F1000100222F00F0204F00F041032032C1344BD
:101F20000DD91E462246043A032A46F8045BFAD825
:101F3000221F22F003020432134404F003042CB1E4
:101F4000C9B21C4403F8011BA342FBD170BC70470B
:101F500014460346C2E700BF034B1B680022C3F8C8
:101F6000A800C3F8AC2070470000002010B40C4B50
:101F70000C4C19680C4AD1F8A830D1F8AC0004FB1D
:101F800003F402FB0040A3FB02230344013243F1AC
:101F90000003C1E92A2323F000405DF8044B704799
:101FA000000000202DF451582D7F954C00000000BA
:101FB0000000000000000000000000000000000021
:101FC000A2EB0300704700BF02780B78012A28BFFC
:101FD0009A42F5D16DE9044540EA0104CDE9026772
:101FE0006FF0000C4FEA447212B380EA010414F05F
:101FF000070F6AD100F0070420F0070004F0030582
:1020000021F007014FEAC505F0E8042314F0040F9E
:10201000F1E804670CFA05F462EA040266EA0406D1
:102020000AD063EA0403624667EA0407664603E0EF
:10203000F0E80423F1E8046782FA4CF582EA06042A
:10204000A4FA8CF46CBB83FA4CF583EA0705A5FA75
:102050008CF595B950E9022351E9026782FA4CF5F3
:1020600082EA0604A4FA8CF483FA4CF583EA0705A5
:10207000A5FA8CF52543DBD09CB92DBAB5FA85F4C9
:1020800024F0070427FA04F1DDE9026723FA04F3D8
:1020900003F0FF0001F0FF01FDE80445A0EB0100A3
:1020A000704724BAB4FA84F424F0070426FA04F141
:1020B000DDE9026722FA04F202F0FF0001F0FF01FD
:1020C000FDE80445A0EB0100704714F0030F3CD17C
:1020D00010F0030428D150F8082B51F8083B82FA7D
:1020E0004CF582EA0305A5FA8CF55DB950F8042C8D
:1020F00051F8043C82FA4CF582EA0305A5FA8CF506
:10210000002DE8D02DBAB5FA85F424F0070423FA9F
:1021100004F122FA04F202F0FF0001F0FF01FDE8F1
:102120000445A0EB010070474FEAC40420F003000F
:1021300050F8082B21F0030151F8083B0CFA04F485
:1021400062EA040263EA0403C9E710F003041AD048
:10215000A1EB040120F00300E40750F8042B06D0A3
:102160000FD28B785FFAA2F4E41A06D12BB1CB78A8
:102170005FFAB2F4E41A00D11BB920465DF8104BA7
:10218000704701F1040150F8042BCC0721F0030142
:1021900051F8043B48D824D222F07F4482FA4CF50F
:1021A00094EA1325A5FA8CF50AD165B951F8043BD8
:1021B00084EA0204B4EB036F0ED150F8042BEBE772
:1021C0004FEA132355E035F07F454DD10878FDE8FF
:1021D0000445C0F1000070474FEA126203F0FF03AC
:1021E00047E002EA1C4482FA4CF594EA1345A5FA4A
:1021F0008CF50AD165B951F8043B84EA0204B4EBCA
:10220000034F0CD150F8042BEBE74FEA134330E0B7
:1022100015EA1C4528D10B884FEA124229E04FEA03
:10222000124203EA1C4324E002F0FF0482FA4CF558
:1022300094EA1365A5FA8CF50AD165B951F8043B07
:1022400084EA0204B4EB032F09D150F8042BEBE726
:102250004FEA13630DE015F0FF0F05D10B684FEA4D
:10226000122223F07F4304E04FF00000FDE8044514
:10227000704712BA1BBA82FA4CF482EA0304A4FA39
:102280008CF5B5FA85F402FA04F203FA04F34FEA86
:102290001260FDE80445A0EB1360704780EA01027C
:1022A000844612F0030F4FD111F0030F32D14DF8D5
:1022B000044D11F0040F51F8043B0BD0A3F101328F
:1022C0009A4312F0803F04BF4CF8043B51F8043BA2
:1022D00016D100BF51F8044BA3F101329A4312F01A
:1022E000803FA4F101320BD14CF8043BA24312F021
:1022F000803F04BF51F8043B4CF8044BEAD023461E
:102300000CF8013B13F0FF0F4FEA3323F8D15DF8CF
:10231000044B704711F0010F06D011F8012B0CF897
:10232000012B002A08BF704711F0020FBFD031F80F
:10233000022B12F0FF0F16BF2CF8022B8CF8002096
:1023400012F47F4FB3D1704711F8012B0CF8012B19
:10235000002AF9D1704700BF024B1A6801235C3292
:1023600000F002B800000020F0B420B307460D468C
:1023700017F8016B01E0A64216D015F8014B002CAE
:10238000F9D1EEB13E460C4616F8015B00E073B1A0
:1023900014F8013B9D42FAD15DB100233B701660F9
:1023A00006463046F0BC704763B13846DEE7374634
:1023B000E8E72E46F3E710680028D7D10646F0E795
:1023C0001660EEE7176006460370EAE70123FFF7A1
:1023D000CBBF00BF2DE9F04F474C83460E46D4F8E3
:1023E00000E000E02646344614F8015B0EEB0500E1
:1023F000407800F0080000F0FF080028F2D12D2DF1
:102400005CD02B2D04BF7578B41C002B3ED0102B54
:1024100060D09A46B8F1000F0CBF6FF000404FF04B
:1024200000400027B0FBFAF9BC460AFB19000CE09B
:10243000303DAB4219DD7E1C05D0CC4523D820D0E1
:102440000AFB0C5C012714F8015B0EEB050676789D
:1024500016F0040FECD116F0030606D0012E14BFBF
:1024600057263726AD1BAB42E5DC7B1C16D0B8F1F6
:10247000000F10D16046002A39D0DFB91160BDE8E5
:10248000F08F8542DCDD4FF0FF37DCE7302D1AD0CE
:102490000A239A46BEE7CCF1000CEBE7B8F1000F37
:1024A0004FF022030CBF6FF000404FF00040CBF81C
:1024B0000030F2B1611E1160BDE8F08FB41C757878
:1024C0004FF00108A1E7237803F0DF03582B08D071
:1024D00008239EE7302D9CD1207800F0DF0058289B
:1024E00097D14FF0100A65785346023492E7BDE861
:1024F000F08FBDE8F08F00BF3004002010B4044C12
:1025000013460A46014620685DF8044BFFF762BF98
:10251000000000202C0000006B6F70756B6C656D07
:102520006500000000000000000000000000000046
:102530000000000079696B616D610000000000001F
:10254000000000000000000000000000000000008B
:102550006B7572756C616D61000000000000000019
:1025600000000000000000000000000063696C61D2
:102570006C616D61000000000000000000000000C0
:1025800000000000000000004C757466656E20506D
:10259000617261005961746972696E0048616E67A9
:1025A00069205572756E6C65723A000048697A6DE3
:1025B000657420456B73696B0000000050617261A7
:1025C0006E697A20596574657273697A000000003B
:1025D0002052616E646F6D207361796900000000A4
:1025E000506172612053696B697374690000000067
:1025F00050617261204961646500000074616E651C
:102600002031303020544C0074616E65203530200C
:10261000544C000074616E6520323020544C000030
:1026200074616E6520313020544C000074616E6519
:10263000203520544C0000004261736172692069AA
:102640006C652067657263656B6C65737469000007
:102650005061726120557374752059657465727389
:10266000697A000050617261205573747500000032
:102670004B6173610000000053746F6B20447572EE
:10268000756D000074616E65206B6F70756B6C65A5
:102690006D65000074616E652079696B616D610024
:1026A00074616E65206B7572756C616D6100000000
:1026B00074616E652063696C616C616D610000001E
:1026C00032300000000000000000000000000000A8
:1026D0000000000000000000000000003130000099
:1026E00000000000000000000000000000000000EA
:1026F0000000000000000000333000000000000077
:1027000000000000000000000000000000000000C9
:102710000000000031000000000000000000000088
:1027200000000000000000000000000000000000A9
:10273000313520544C000000000000000000000073
:102740000000000000000000000000003200000057
:102750000000000000000000000000000000000079
:102760000000000000000000353000000000000004
:102770000000000000000000000000000000000059
:1027800000000000313020544C0000000000000028
:102790000000000000000000000000000000000039
:1027A00033000000000000000000000000000000F6
:1027B0000000000000000000000000003130300088
:1027C0000000000000000000000000000000000009
:1027D00000000000000000003520544C0000000004
:1027E00000000000000000000000000000000000E9
:1027F00000000000340000000000000000000000A5
:1028000000000000000000000000000000000000C8
:10281000353020544C000000000000000000000093
:102820000000000000000000000000002020202028
:1028300020202020202020202020202020202000B8
:10284000546F706C616D20547574617200000000EB
:1028500043000000002020202020202020202828C5
:102860002828282020202020202020202020202050
:102870002020202020881010101010101010101090
:1028800010101010100404040404040404040410C0
:10289000101010101010414141414141010101014E
:1028A0000101010101010101010101010101010118
:1028B0001010101010104242424242420202020224
:1028C00002020202020202020202020202020202E8
:1028D0001010101020000000000000000000000098
:1028E00000000000000000000000000000000000E8
:1028F00000000000000000000000000000000000D8
:1029000000000000000000000000000000000000C7
:1029100000000000000000000000000000000000B7
:1029200000000000000000000000000000000000A7
:102930000000000000000000000000000000000097
:102940000000000000000000000000000000000087
:102950000000000000000000F8B500BFF8BC08BC93
:102960009E467047F8B500BFF8BC08BC9E4670474D
:10297000080000200000000000000000F402002019
:102980005C030020C40300200000000000000000E1
:102990000000000000000000000000000000000037
:1029A00000000000000000000000000050280000AF
:1029B0000000000000000000000000000000000017
:1029C0000000000000000000000000000000000007
:1029D00000000000000000000000000000000000F7
:1029E00000000000000000000000000000000000E7
:1029F00000000000000000000000000000000000D7
:102A000000000000000000000000000000000000C6
:102A100000000000000000000000000000000000B6
:102A200001000000000000000E33CDAB34126DE653
:102A3000ECDE05000B0000000000000000000000BC
:102A40000000000000000000000000000000000086
:102A50000000000000000000000000000000000076
:102A60000000000000000000000000000000000066
:102A70000000000000000000000000000000000056
:042DA00054280000B3
:00000001FF
